:1000000000000120750300005D0300005F03000095
:1000100061030000630300006503000000000000AE
:100020000000000000000000000000006703000066
:1000300069030000000000006B0300006D03000076
:100040006F0300006F030000351600005D23000001
:10005000312300006F0300006F030000A9160000A9
:10006000FD1700006F0300006F0300006F03000026
:100070006F0300006F0300006F0300006F030000B8
:100080006F0300006F0300006F0300006F030000A8
:100090006F0300006F0300006F0300006F03000098
:1000A0006F0300006F0300006F0300006F03000088
:1000B0006F0300006F03000000000000000000005C
:1000C0006F0300006F0300006F0300006F03000068
:1000D0006F0300006F0300006F03000000000000CA
:1000E0000000000000000000000000000000000010
:1000F0000000000000000000000000000000000000
:1001000000000000000000000000000000000000EF
:1001100000000000000000000000000000000000DF
:1001200000000000000000000000000000000000CF
:1001300000000000000000000000000000000000BF
:1001400000000000000000000000000000000000AF
:10015000000000000000000000000000000000009F
:10016000000000000000000000000000000000008F
:10017000000000000000000000000000000000007F
:10018000000000000000000000000000000000006F
:10019000000000000000000000000000000000005F
:1001A000000000000000000000000000000000004F
:1001B000000000000000000000000000000000003F
:1001C000000000000000000000000000000000002F
:1001D000000000000000000000000000000000001F
:1001E000000000000000000000000000000000000F
:1001F00000000000000000000000000000000000FF
:10020000354936480A1A02D0072291438D463449AF
:1002100034480A1A06D00722914381F30988022242
:1002200082F3148830483149314A00F044F83148AB
:100230003149324A00F03FF831483249324A00F041
:100240003AF832483249334A00F035F832483349F7
:10025000334A00F030F833483349344A00F02BF881
:1002600033483449344A00F026F8344834490022EF
:1002700000F02CF833483449002200F027F83348C6
:100280003349091A082902DB002202604160314A21
:1002900090471F481F49884205D00268043003B4C4
:1002A000904703BCF7E700208646EC46002000217B
:1002B000294A9047FEE7884207D0521A05D00378B2
:1002C00001300B700131013AF9D17047884202D0F8
:1002D00002700130FAE770470000012000E00020C2
:1002E000000001200000012008370000000000206D
:1002F00050000020D4030000D40300003E32000070
:10030000083700000000002000000020AC32000090
:10031000AC320000AC320000AC320000AC32000065
:10032000AC320000AC320000AC32000006370000F6
:1003300058370000500000205000002050000020DE
:10034000CC080020CC080020CC080020CC080020DD
:10035000CC2800209D03000015280000FEE7FEE7E2
:10036000FEE7FEE7FEE7FEE7FEE7FEE7FEE7FEE765
:10037000704700BF1048804710484FF0070188437E
:1003800085460F4880470F48016841F470010160BD
:10039000BFF34F8FBFF36F8FFFF732BF0A480B4990
:1003A0000B4A884207D0521A05D0037801300B70EF
:1003B0000131013AF9D170477103000000000120BA
:1003C000D928000088ED00E0AC32000000000020D9
:0403D0000000002009
:1003D400F0B595B01D46164608460C4600F07AFF67
:1003E4001A9B0D93CDE9086500252B46082205A923
:1003F40020460A958DF82C500C9500F087FF079B3A
:100404000293069B03939DF814308DF8115003F06A
:100414000302012A1DD1BDF81420059DC3F3C203B4
:10042400C2F383168DF81030B20008230EA92046BB
:1004340000F06CFFC5F3952508AB0093324602AB80
:100444000EA9284600F064FB204600F047FF15B0D3
:10045400F0BD022AF8D1BDF81650C3F3C203C5F3A8
:1004640089158DF810300827082D2E4628BF082638
:100474003B4632460EA9204600F048FFAD1B08ABB0
:1004840002AA31460EA8374400F0A6FB002DEBD19A
:10049400DAE70000014B01221A7070479100002036
:1004A4007047000070B50E4D06460FCD88B06C46FF
:1004B4000FC495E80F00002E84E80F00094A0A488B
:1004C4004FF0060308BF00226946009301F072F85A
:1004D40008B100F0DBFB054B1E7008B070BD00BF17
:1004E400AC320000990400000000002050000020FD
:1004F40007B5044B0093044A4023FFF769FF03B098
:100504005DF804FB110500005100002038B50D48CA
:100514000D4C0E4D002323700378EB5CD2B263B113
:10052400043001F037FE08B100F0B0FB084B1A7834
:1005340012B12378002BFBD038BD0C3001F0A0FBA6
:10054400F1E700BF0000002091000020C00500205A
:100554005000002008B50848084A0378D35C3BB132
:10056400043001F0A9FDBDE808400020FFF79ABF60
:100574000C3001F017FBF6E700000020C005002056
:10058400037813F0040216D003F00303012B03D005
:10059400022B09D0012070470A6800880232C0F398
:1005A400831002440A60F5E70B684288023303EBC8
:1005B40092130B60EEE71046704700002DE9F04FF0
:1005C400DFF824A10F4685B00446861C002015469A
:1005D40000F0B2FBDAF800103960DAE901321344B2
:1005E40001335B1A0AF21C470AF583690AF21448BC
:1005F400B3421BD30020002D72D004F00F039B01E3
:1006040043F0050363F30F00DAF80020DAF808304A
:100614001340033332444AF823000020CAF8002070
:1006240000F08CFB012005B0BDE8F08F01213846B5
:1006340000F0A9FB484600F0BEFB404600F0BBFBBF
:10064400DAF80400DAF808B0009000EA0B0003308E
:100654000AEB80006946FFF793FF009B50BB0BEA4F
:1006640003020AEB820203F1020CD2680192013305
:1006740003EA0B0B0AEB8B0B02F00302012ADBF8F3
:100684000C10CDF800C023D0022A16D08346404671
:1006940000F094FB10B1009BCAF804305946384668
:1006A40000F071FBDAE901231344DAF80020013386
:1006B4009B1A9DE70BEA0300C9E7BDF80630C3F3B4
:1006C400891303334FEA114B0CEB93030093DEE7DA
:1006D400BDF80430C3F383134FEA114B6344F5E7C9
:1006E400A40544F006008FE76401002030B50A4CED
:1006F40071B10A4A0A49121BD20800239A4201D155
:10070400002030BD31F82350854202D00133F5E793
:10071400034654F83300F4E7403200008832000006
:1007240000000020094B013903EBC000032909D85C
:10073400DFE801F00A0204060420704700797047DC
:100744004079704700207047022070474032000013
:10075400034BD3E90030C31A58425841704700BFD5
:10076400640100202DE9F04385B0FFF7F1FF064650
:10077400002840F0FA807E4CC4F81804BFF34F8F71
:100784006368A56800932B40033304EB8300694638
:10079400FFF7F6FE009B18B1D4F81824002A62D0A3
:1007A40005EA0302991C013304EB82022B4004EB9B
:1007B4008303D268DB68029302F00303022B0192E5
:1007C400009163D1BDF806306A48C3F38917502FEE
:1007D400B84628BF4FF0500808F1080168F38F139A
:1007E400C1F30901ADF8063000F045FD06460028C6
:1007F40000F0A68000F06EFD0023082201A9304617
:1008040000F07AFD009925EA01020132B8EB820F6B
:100814004FEA820333D95FFA88F863B32940DDB223
:10082400A8EB050803315FFA88F9A846524D04EB9A
:10083400810108234246304600F05EFD3DB108F1D7
:100844000803DBB24A462946304600F055FD009BBA
:10085400033703EB97070097D4F81834002B4BD1D8
:10086400D4F810545BE0226893428CD36260304623
:1008740005B0BDE8F08340491D469946D9E72940B3
:1008840003310823424604EB8101DDE7012B57D1F4
:10089400BDF804303748C3F38311062928BF062165
:1008A40061F38913023101F00F018900ADF80430BE
:1008B40000F0E1FC0646002842D000F00BFD0023C6
:1008C400082201A9304600F017FD0027BDF80420D6
:1008D400C2F38312BB00974203F10803BCD2009910
:1008E4004A1C29400331009204EB81010422304662
:1008F40000F002FD0137E9E7304600F0EFFCFFF7B6
:1009040027FF80F00100C6B2B1E7EB685B7923B141
:100914002B6831461B6828469847EB681D68002DF4
:10092400F3D1304600F0DAFC284600F005FAD4F89A
:1009340018340BB9009B6360002000F0FFF9DEE778
:10094400D4F8104454B90D4B0D480E49C01AC008D0
:10095400000440F0020000F063F8D0E7236820466A
:100964009B689847E3681C68ECE700267FE700BFB4
:100974006401002098320000700100204032000021
:1009840078320000E93200002DE9F74F224E044688
:100994000F46924601A901221846D6F808909B46B4
:1009A400FFF70CFE20B3019D4FF00008AA1CD845A8
:1009B40008EB020126D11948002100F0C1F980F3A7
:1009C4001000000440EA1440E4006B1C04F03804F6
:1009D40003EA090305EA090544F0010406EB83036D
:1009E400033544EA881444EA8724D86046F825404D
:1009F40096F820341BB1FFF7B5FE0028FBD103B0F5
:100A0400BDE8F08F09EA010106EB81015AF82830AC
:100A1400CB6008F10108CAE76401002080050020CA
:100A240000231A46FFF7B0BF38B5084B0125D3F8A9
:100A3400104483F8205404B938BDE3685D71236819
:100A440020465B689847E3681C68F4E7640100206B
:100A540030B5C38885B004460D4633B1144A0092BC
:100A64001449154A284600F0ECF9217A05291DD0CD
:100A7400637A4BB1A088FFF755FE104B104953F829
:100A84002020284600F0DDF9227A0E4BA08853F886
:100A9400222003920021FFF729FE039A0A49034604
:100AA400284605B0BDE8304000F0CBB905B030BDF4
:100AB4001E33000006330000FE3200008C330000B9
:100AC40023330000B03300002633000007B503468B
:100AD4000846197A052911D05B7A2BB1094A0A49CB
:100AE400019000F0AEF901980849019000F0A9F9CD
:100AF400019803B05DF804EB00F098B9002AF8D02F
:100B0400F2E700BF1E330000233300001B33000054
:100B14002DE9F04385B01F460C9D002395F80C90F9
:100B24002B7306460C46904629463846FFF790FF3D
:100B3400B8F1060F09D8DFE808F00412181F2833AB
:100B440040003146284600F07CF900222946384608
:100B5400FFF7BCFF85F80C9005B0BDE8F083226870
:100B64003146284600F06DF9EFE7D4E90023314619
:100B7400284600F066F9E8E7A36800933146D4E913
:100B84000023284600F05DF9DFE7E3680193A368DA
:100B940000933146D4E90023284600F052F9D4E703
:100BA40023690293E3680193A36800933146D4E96F
:100BB4000023284600F045F9C7E7636903932369D6
:100BC4000293E3680193A36800933146D4E90023B8
:100BD400284600F036F9B8E708292DE9F74F804692
:100BE4000E4617461C4639D8002593F80C901D7301
:100BF40019461046FFF72CFFDFF880A0DFF880B01D
:100C0400AE422ED918F805205946204600F019F9AD
:100C14000135082DF4D11849DFF868A0DFF868B071
:100C2400204600F00EF90025AE421FD918F8052021
:100C34000192104602F0A0FA0028019A594608BF12
:100C44002E22204600F0FDF80135082DECD10122BA
:100C540021463846FFF73AFF84F80C9003B0BDE80C
:100C6400F08F5146204600F0ECF8D1E7514620467B
:100C740000F0E7F8E8E700BF3A330000363300003D
:100C840030330000383300003C3300001FB500212E
:100C9400039001AA44F20100CDE9011100F004F827
:100CA40005B05DF804FB000038B572B6FFF7BCFE72
:100CB400FFF758FD0028FBD1104B114C114D124980
:100CC400E41AE408240444F00100FFF7A9FED5F86F
:100CD400F030DB0700D500BE0C4944F00200FFF7FA
:100CE4009FFEBFF34F8FEA68094B02F4E06213439F
:100CF400EB60BFF34F8F00BFFDE700BF4032000041
:100D04007832000000ED00E0C4330000D03300006E
:100D14000400FA0572B6024A13680133136070477F
:100D240088050020034A1368013B136003B962B6C7
:100D3400704700BF88050020FFF7ECBFFFF7F2BF44
:100D440010B5034653E8000F0A4643E8002494F024
:100D5400000FF7D110BD10B5034653E8002F42EA47
:100D6400010043E8000494F0000FF6D110BD10B563
:100D7400034653E8000F00EA010243E8002494F01C
:100D8400000FF6D110BD10B5034653E8002F02EB57
:100D9400010043E8000494F0000FF6D110BD10B533
:100DA400034653E8002FA2EB010043E8000494F04B
:100DB400000FF6D110BD0121FFF7CDBF0021FFF7D1
:100DC400D6BF38B504460020FFF7B6FF2268636833
:100DD4001168994213D9481E106011F8013CE56866
:100DE400218A01FB0355A36811791B1ADBB29942CE
:100DF40000D213710020FFF7A1FF284638BD00255B
:100E0400F8E738B5054600200C46FFF795FF2A6839
:100E14001368591C1160E968641A298AB4FBF1F457
:100E24001C70BDE838400020FFF788BF826810B509
:100E340004462AB143690168006998470023A36006
:100E440010BD0EB403B5039921B104AB01AA0193FB
:100E540000F06EF802B05DF804EB03B070478268EE
:100E640030B40468551C8560A154D0E901329A421B
:100E740002D330BCFFF7DABF30BC70472DE9F84F1E
:100E84009846DDE90A43154682460F460A464FF066
:100E94000109AA420FD2C14538BFC14613F0010B64
:100EA40001D16CB900240126B8F1010F1BD908F156
:100EB400FF386E43F8E709F10109B2FBF5F2E8E700
:100EC4009B070ED5B8F1000F0CBF30262026A14594
:100ED400E9D2013C31465046FFF7C1FF002CF6D160
:100EE400E0E72026F3E7B7FBF6F39D42E1D9DFF80C
:100EF4003C80B7FBF6F3504618F8031006FB137753
:100F0400FFF7ADFF3346AB42B6FBF5F6F1D2BBF1CA
:100F1400000F02D00CB1A14501D3BDE8F88F202108
:100F24005046013CFFF79BFFF4E700BFDD330000B0
:100F34002DE9F74F054617468846002900F03E8103
:100F440018F8011B49B92B7B002B00F03781284688
:100F540003B0BDE8F04FFFF769BF252940F0B78023
:100F6400002698F800302D2B424608F1010823D0C2
:100F7400302B24D02B2B25D000242A2B02F1010165
:100F840023D13B681A1D1B683A601C440A46137837
:100F94002E2B26D101324FF0000A104610F8011B07
:100FA400A1F1300CBCF1090F1DD80A2303FB0A136D
:100FB400A3F1300A0246F0E746F00106D1E746F015
:100FC4000206CEE746F00406CBE711F8013CA3F194
:100FD40030000928DBD80A2202FB0434303C0A46DC
:100FE400CBE74FF0000A12F8011B01F0FB00682860
:100FF4009046F8D0782909D86F290CD8632962D093
:1010040022D8252963D0582900F0888098F8003028
:10101400002B95D197E770390829F7D801A353F825
:1010240021F000BF9B1100001110000011100000FE
:1010340031110000111000000F1100001110000008
:101044001110000021110000642901D06929DDD1AB
:101054003A68D2F80090111D89EAE9723960A2EB6E
:10106400E9724FF0010B092A35DCD34538BFD3466A
:101074002CB1B9F1000F01DB720700D5013CB307B5
:1010840002D5BAF1000F03D0F00701D44CBB002401
:10109400B9F1000F2DDAC9F100092D212846FFF717
:1010A400DEFE06F00302022A04D1BAF1000F01D1D8
:1010B4001CBB0024CDE9004653460A224946284673
:1010C400FFF7DCFEA2E73B681A1D19783A60284650
:1010D400FFF7C5FE9AE70A230BF1010BB2FBF3F20B
:1010E400C1E7A345D4D220212846013CFFF7B7FE2F
:1010F400CCE77107D5D52B21D0E7A345DAD230212F
:101104002846013CFFF7ABFED2E73968CDE900463B
:101114000A1D3A6053460A220968D0E739680A1D55
:101124003A60CDE9004653461022F5E73B681A1DA4
:101134003A6016F00106D3F8009024D1B9F1000FFB
:1011440003D0484602F049F80646B4421DD809F1D6
:10115400FF3919F8011F00293FF458AF2846FFF75B
:101164007EFEF6E728460136FFF779FE19F80610E9
:101174000029F7D1A642BFF449AF20212846013CFB
:10118400FFF76DFEF6E70026F0E720212846013C34
:10119400FFF765FED9E73B681A1D3A6030212846FF
:1011A4001C68FFF75CFE78212846FFF758FE0022F2
:1011B4000823CDE900322146102280E703B0BDE8C0
:1011C400F08F00BF2DE9F84FB0F806A04579D2F8AA
:1011D40000B09DF828900AFB05F5043D88460BEB0A
:1011E4000301A94203F1040488BFA5EB030BB4FB7C
:1011F400FAF607460AFB1644C2F800B04EB9AAEB49
:1012040004055D4528BF5D46BBF1000F04D1BDE870
:10121400F88F3F68013EF1E7043408EB06003C44D4
:101224002A46B9F1000F0DD02146ABEB050B01F0B6
:10123400ABFFDA452E443F6855464FF0000428BF03
:101244005D46E1E701462046EFE7F8B546790146F9
:10125400721E0546002393422D6803D30024A64240
:1012640002D8F8BD0133F6E70F682846FFF7C9FD39
:1012740001343946F3E72DE9F843068ACD1C0746C5
:10128400FFF79FFD043E35440446B5FBF6F5F0B187
:101294004FF48073EDB28380C680013D07608146C0
:1012A4004FF00008A84512D23846FFF78AFD0646DB
:1012B40048B163790133637108F10108C9F800008A
:1012C40007608146EEE72046FFF7BFFF344620461D
:1012D400BDE8F88301210430FFF755BD10B50121A5
:1012E40004460430FFF75BFDC0B220B92046BDE8D8
:1012F4001040FFF7AABF10BD1FB503920022009251
:1013040003AAFFF75FFF05B05DF804FB1FB5039266
:101314000122009203AAFFF755FF05B05DF804FB14
:101324000648074A03780749D35C012213B1043005
:1013340000F078BF0C3000F0F1BC00BF1C000020AE
:10134400C0050020B40500200648074A0378074971
:10135400D35C012213B1043000F01CBF0C3000F048
:101364008FBC00BF1C000020C0050020B505002074
:1013740037B50578012D0DD0022D2ED005BB1E49A1
:101384001E4800F0D2F8002832D103B0BDE8304046
:10139400FFF7DABF43681A4C1978204600F0B3F817
:1013A40080B18DF800500190164B68461B68984731
:1013B400A168E368A2885B1A9A420AD3FFF7B0FFD8
:1013C40003B030BDA268E3689A42F1D08DF8000002
:1013D400EAE70D4B01221A70F2E7C3688DF800505A
:1013E4000193FFF79DFF074B68461B689847E7E7A3
:1013F40003238DF80030F6E7B5050020A40500208E
:10140400900500208C050020A0050020F0B51F46A3
:10141400234B89B004461A600D4600293DD08A88C2
:101424002048096800F060F8002834D1AA89A96826
:101434001D4800F059F800282DD11C4E0FCE6D46E2
:101444000FC596E80F0085E80F0063690693237CB7
:10145400174A18488DF81C70003B18BF01238DF8FB
:101464001430637C002B14BF0E2300238DF8153039
:10147400E3680293A368039323680193694663684E
:10148400009300F097F830B90B4B187023680133C0
:1014940001D0FFF745FF09B0F0BD0720FBE700BF0F
:1014A4008C05002090050020A4050020F8330000DE
:1014B400751300001C000020A005002070B5084D25
:1014C400014608482E7800F030F8044636B100236F
:1014D4002B70FFF725FF08B1FFF7D8FB204670BD3E
:1014E400A00500209005002049B152B1531E1A40B6
:1014F40007D1826001608380C260104670470E206D
:1015040070470920704710B58468C2688388121B2D
:10151400934208D3C26813400268D154C3680133AC
:10152400C360002010BD0420FCE78268C3689A42AF
:101534000AD08268838813400268D35C0B70836886
:101544000133836000207047052070471FB503787E
:101554008DF8003043680193037A8DF80830C3682E
:10156400054A0393054B684653F8213052F821107D
:10157400984705B05DF804FBB8050020BC050020C1
:101584001FB503788DF800304368019383688DF8A4
:101594000830C368054A0393054B684653F8213065
:1015A40052F82110984705B05DF804FBB8050020F7
:1015B400BC050020F0B5194B90F800C091F81DE06F
:1015C40043F82C20164B16460A6943F82C20154B79
:1015D40003F80CE00C4607460FCC89B06D460FC5E6
:1015E40094E80F0085E80F00CDF810C0BEF1000F9D
:1015F40009D0002E0C4A694608BF3246381D00F057
:1016040095FC09B0F0BD002E084A694608BF324671
:1016140007F10C0000F008FAF3E700BFBC05002056
:10162400B8050020C00500205115000085150000F4
:10163400014B1B68184700BFC405002038B50B4B8D
:1016440098420C4601D0002038BD0020FFF774FBFF
:10165400074B1D7915B901221C601A710020FFF790
:101664006DFB002DEFD01120EEE700BF00200040FD
:10167400C4050020034B984201BF034B00221A60AB
:101684001A71704700200040C405002000F180401A
:1016940000F5E040002382B0036003680193019BDE
:1016A40002B07047F0B5524B524CD3F8043185B0B8
:1016B400002B3DD094F82E204FF48270FFF7E6FF04
:1016C4002AB394F82F3013BB494AD2F80031002BC7
:1016D40032D04FF48070FFF7D9FF638B94F82D005C
:1016E400834250D921891B1A9BB289B26383CB1AD6
:1016F400616801EB4303C2F82C36C2F830064FF49C
:101704008270FFF7C3FF3A4B01225A6014E063680A
:1017140002932389ADF80C30E36800218DF804109E
:1017240033BB2374236801A89847002384F82F301F
:1017340094F82E30002BC7D12D4BD3F810315BB168
:101744004FF48870FFF7A2FF0023237402238DF85F
:10175400043001A823689847254BD3F81431EBB122
:101764004FF48A70FFF792FF0023237405B0F0BD95
:10177400208B608363602081E160002AD2D11C4BFE
:1017840001221A60CEE7BAD1E368012184F82F1050
:1017940013B100216183AEE76383B0E766694FF05C
:1017A40000470125002EE1D0B6FA86F227FA02F3AB
:1017B4004632920026EA030602F1804303F5E04331
:1017C4001B68002BEED01046A2F58C72FFF75EFF6B
:1017D400D30882F00402C2F380028DF808308DF839
:1017E400045023688DF8092001A89847DAE700BF60
:1017F40000700040CC0500202DE9F341104C114F3E
:10180400114E00254FF480382368A4F5004080B2BF
:101814006BB1D7F8043308FA05F21A4207D0002353
:10182400236023680193019BD6E900319847013571
:10183400042D04F10404E7D102B0BDE8F08100BF37
:101844004081004000800040FC05002000234350FC
:1018540082B043580193019B02B070470A4610B509
:101864004FF48E71FFF7F2FF136A9168C95C136A33
:1018740001331362C0F81C1510BD024608B5006898
:101884004FF49271FFF7E2FF10684FF48471FFF791
:10189400DDFF136801221A6008BD8B690A4610B582
:1018A4004FF4847123B9FFF7D1FFD0F8183510BD78
:1018B400FFF7CCFF536AD168D0F81805C854536AAF
:1018C40001335362F3E700001FB501238DF80030A4
:1018D400044BCDE90110D3E900126846904705B0E6
:1018E4005DF804FB0806002030B54D4DD5F80433EF
:1018F4009A0585B051D5D5F82431002B4DD04FF43D
:1019040092712846FFF7A2FF4FF40173C5F808331C
:10191400444B93F829200AB901226A604049022203
:101924008DF80020D1F88024C1F8802403929A69AC
:101934000292DA6801920022C3E906226846D3E9DA
:10194400001290473648D0F81C315BB1354A116A11
:10195400536999424DD292F82830002B49D111464F
:10196400FFF77CFF2E48D0F84431002B55D04FF4BC
:10197400A271FFF76BFF2B4B93F829200AB10122C8
:1019840002609A69002A48D0586AD96800229A618C
:1019940005B0BDE83040FFF797BFD5F804335B07C7
:1019A400D0D5D5F80831002BCCD01E4C1C4821468C
:1019B400FFF773FF636AA2699A42C3D1E369E168DE
:1019C4004BB1A3612369E3600023606AE36163624E
:1019D400FFF77AFFB6E794F829300BB901236B605F
:1019E4000F4B4FF40172C3F808230023606AA3610C
:1019F400EEE74FF48E710A48FFF728FF516900297A
:101A0400B0D00023029191688DF8003001915361A8
:101A14006846D2E900139847A4E705B030BD00BF7B
:101A240000200040080600202DE9F843594D90F8A5
:101A340004802C2303FB0853064693F82A300C46F3
:101A44009146002B40F0A28053490068FFF7F6FD51
:101A54000746002840F09C8022683068511C0BD057
:101A64004FF0A04101239340C1F8083502F5E0731B
:101A74004FF0030C41F823C061684B1C1FBF01F5F4
:101A8400E0734FF0A04C4FF0000E4CF823E0A36934
:101A9400C0F8243594F814C0637DBCF1010F4CEAFE
:101AA4000303C0F86C35C0F81415C0F80C251DD11B
:101AB400A268531C1FBF02F5E0734FF0A0414FF022
:101AC400000C41F823C0E368591C0BD04FF0A04C24
:101AD40001219940CCF8081503F5E0714FF0030E8D
:101AE4004CF821E0C0F80835C0F810252C2202FB80
:101AF40008F2AB18C3F804902369AB50B9F1000F96
:101B040031D04FF48E71227FFFF7A0FE30684FF47E
:101B1400A271FFF79BFE33682049C3F80413190B25
:101B240043F30733002BA8BF03F160404FEA53137C
:101B3400BCBF01F00F041A484FEA4212A8BF00F5D7
:101B440061404FEA8303D2B203F16043B4BF02554C
:101B540080F8002303F5614301F01F0101228A404C
:101B6400C3F880211A6033680422C3F800252C23AB
:101B740003FB08530022C3E9062283F829205A6193
:101B8400012283F82A203846BDE8F8830827FAE7BB
:101B94001127F8E708060020ED1800008000020075
:101BA40014ED00E0F8B5057900682C4C0023C0F86A
:101BB40000352C2303FB05435B686BB1284BC0F84D
:101BC400083340F30733C0F304315B0901228A4030
:101BD4002033244941F82320D0F80C65D0F814159B
:101BE400D0F80835D0F810254FF0FF37BE42C0F8C2
:101BF400147518BF06F5E076C0F80C75C0F80875C2
:101C0400C0F810751EBF4FF0A0474FF0020C47F804
:101C140026C04E1C1FBF4FF0A04601F5E0710227FD
:101C240046F82170511C1FBF4FF0A04102F5E0722D
:101C3400022641F822605A1C1FBF03F5E0734FF0DF
:101C4400A042022142F82310FFF714FD2C2303FBCA
:101C54000544002384F82A306360F8BD0806002098
:101C64008402020000E100E00279044B2C2101FB14
:101C740002335869003818BF012070470806002055
:101C84002DE9F84F064689469246FFF7EDFF0446D4
:101C940000283DD196F804801F4F2C2508FB057BB6
:101CA4004FF48E71CBF82000CBF814A08BF82800E9
:101CB400CBF808903068FFF7C9FD306801238360D2
:101CC4005946FFF7CBFDDBF804305D4613BB3068A3
:101CD4002A6A6B699A4211D33368D3F81C21002A0B
:101CE400FBD00122DA6000202C2303FB08770023B9
:101CF4007B61BDE8F88F95F828303BB9D0F81C31EA
:101D0400002BF8D05946FFF7A9FDE1E70F20EBE7D8
:101D14001120EEE72046ECE7080600202DE9F04705
:101D24003A4D07792C2303FB075306465C6824B11C
:101D340003684FF40170C3F808032C2303FB075313
:101D4400986950B1D869002841D024B133684FF460
:101D54000172C3F80423112436E09A61D9605862F1
:101D6400D8612C2303FB075393F829301BB910B90E
:101D74003046FFF782FD4FF02C0808FB075A306805
:101D8400DAF80430002B37D14FF4A271D046FFF7B4
:101D94005DFD3068D0F82491D0F80831D0F8444182
:101DA400CBB914B9B9F1000FF3D02C2303FB0755B9
:101DB4000023AB61B9F1000F24D12CBB95F8291095
:101DC40033680122B1B11A602046BDE8F087196179
:101DD400DA610120C5E7B9F1000FE6D1002CE4D1A6
:101DE4004146FFF75AFDDAF82430DAF818209A420F
:101DF400CFD8DAE75A60E7E74FF40173C0F8043349
:101E04000024E1E70324DFE70F24DDE708060020D0
:101E14000023435082B043580193019B02B07047A2
:101E24001FB501238DF80030054B8DF80800019192
:101E34006846D3E90012904705B05DF804FB00BF83
:101E4400340600207FB5374AD2F82461002E47D0EB
:101E540010464FF49271FFF7DBFF02238DF8003038
:101E6400D2F88034C2F880340393D2F83C358DF82C
:101E740008302D4BDA6801920022C3E90622684635
:101E8400D3E9001290472748D0F844316BB14FF49E
:101E9400A271FFF7BDFF244B9A6932B100229A6107
:101EA400D0F83C05D968FFF7BBFF1E48D0F82031B5
:101EB400A3B14FF49071FFF7ABFF1B4B5A696AB1A2
:101EC400D0F84C158DF80810002299688DF8002080
:101ED40001915A616846D3E90012904704B070BD7D
:101EE400D2F81031002BCED04FF488711046FFF792
:101EF4008FFF0D4BD2F83C0599698842C3D1DC6948
:101F0400D96864B1D2F8005225F02005C2F8005215
:101F14001A699C61DA60DE61FFF782FFB3E79C61B6
:101F2400FAE700BF00200040340600202DE9F84302
:101F34005D4E90F80480242303FB0863054693F860
:101F440020300C469146002B40F0AA805749006887
:101F5400FFF774FB0746002840F0A4802268286835
:101F6400511C0BD04FF0A04101239340C1F8083518
:101F740002F5E0734FF0030C41F823C061684B1C79
:101F84001FBF01F5E0734FF0A04C4FF0000E4CF86A
:101F940023E0A369C0F8243594F814C0637DBCF130
:101FA400010F4CEA0303C0F86C35C0F80C25C0F8E7
:101FB40014151DD1A268531C1FBF02F5E0734FF026
:101FC400A0414FF0000C41F823C0E368591C0BD02A
:101FD4004FF0A04C01219940CCF8081503F5E071AD
:101FE4004FF0030E4CF821E0C0F80835C0F8102576
:101FF400242202FB08F2B318C3F804902369B350F7
:10200400B9F1000F3BD04FF48871227FFFF700FF36
:1020140028684FF49071FFF7FBFE28684FF4927123
:10202400FFF7F6FE28684FF4A271FFF7F1FE2B6864
:102034001F49C3F80413190B43F30733002BA8BF3C
:1020440003F160404FEA5313BCBF01F00F04194879
:102054004FEA4212A8BF00F561404FEA8303D2B2AF
:1020640003F16043B4BF025580F8002303F56143D4
:1020740001F01F0101228A40C3F880211A602B68F5
:102084000822C3F80025242303FB08660023C6E9BD
:1020940006337361012386F820303846BDE8F8839F
:1020A4000827FAE71127F8E734060020491E000044
:1020B4001003020014ED00E0F8B5057900682C4C1B
:1020C4000023C0F80035242303FB05435B686BB190
:1020D400284BC0F8083340F30733C0F304315B09DD
:1020E40001228A402033244941F82320D0F80C658A
:1020F400D0F81415D0F80835D0F810254FF0FF3774
:10210400BE42C0F80C7518BF06F5E076C0F8147529
:10211400C0F80875C0F810751EBF4FF0A0474FF007
:10212400020C47F826C04E1C1FBF4FF0A04601F515
:10213400E071022746F82170511C1FBF4FF0A041E7
:1021440002F5E072022641F822605A1C1FBF03F513
:10215400E0734FF0A042022142F82310FFF78AFAFD
:10216400242303FB0544002384F820306360F8BD76
:10217400340600201003020000E100E00279044B61
:10218400242101FB02335869003818BF012070472D
:10219400340600202DE9F84301F06043B3F1005FF9
:1021A40006468846914634D1FFF7E8FF044690BBC3
:1021B40032791B4F3068242505FB02754FF490716A
:1021C400C5F81490C5F80880FFF722FE30684FF474
:1021D400AC71FFF71DFE33686969A868C3F844054C
:1021E400C3F84815012199606968B1B9D3F8201181
:1021F400D3F8580149B90028F8D00F20242303FB51
:10220400027700237B61BDE8F883002818BF0F2004
:10221400F4E71020F7E71120F5E72046F3E700BFC5
:1022240034060020F8B501F06043B3F1005F0446C2
:102234000F465ED10379304D242101FB03514968D7
:1022440021B100684FF40476C0F80863242000FB31
:1022540003539E6956B1D869002839D021B1236847
:102264004FF40472C3F80423112030E09A61DF6054
:10227400DE6120684FF48871FFF7CAFD20684FF4CF
:10228400A271FFF7C5FD2368C3F83475C3F8382578
:1022940016BB01221A602479242202FB04525268DC
:1022A4000ABBD3F81011D3F84421D3F82401114305
:1022B40002D10028F5D00A46242303FB0455002349
:1022C400984218BF03209A42AB6118BF0F20F8BD93
:1022D4001F61DA610126CCE7D3F8002242F0200224
:1022E400C3F80022D7E74FF40472C3F80423002094
:1022F400EDE71020EBE700BF34060020C27FFF2A81
:1023040007D0817F012393404FF0A04251B1C2F81E
:102314000C350023037243770346416853F8082BB6
:1023240018461047C2F80835F3E700004FF0402381
:1023340082B0D3F8182152B10022C3F81821D3F87F
:1023440018310193019B034802B0FFF7D7BF02B0D5
:10235400704700BF7C060020084BD3F8182182B0D8
:1023640052B10022C3F81821D3F818310193019B0C
:10237400034802B0FFF7C2BF02B07047003000400C
:10238400580600202DE9F74F90F804906F4E019302
:102394004FF0240A0AFB09FA06EB0A0B90469BF855
:1023A4001C2007460C46002A40F0CB800568684A8A
:1023B400284652F82910FFF741F9002840F0C3805D
:1023C40046F80A80019BCBF8043094F800E094F8B6
:1023D4000CC04FF0A042012303FA0EF3BCF1010F2D
:1023E40094BFC2F80C35C2F808350EF5E07301212C
:1023F40042F823106378FF2B1FBF9940C2F80C15D5
:1024040003F5E0714FF0030A18BF42F821A0A27847
:1024140008BF4FF0FF33FF2A1BBF02F5E0714FF0F6
:10242400A04A4FF0FF314FF0040B16BF0192019107
:102434004AF821B0242101FB096686F82020E178BE
:10244400424AF177FF2917D094F804A04FF0010B0A
:102454000BFA01FB4FF0A046BAF1000F68D0C6F8A2
:102464000CB501F5E0714FF0030B46F821B02421BF
:1024740001FB092181F81EA0C5F808E5C5F80C3553
:10248400019BC5F81035A368C5F82435637B003B70
:1024940018BF0123BCF1020F4DD0BCF1030F4DD086
:1024A400BCF1010F01D143F00203C5F85435A379FF
:1024B400C5F8C035B8F1000F02D04023C5F8043385
:1024C4000723C5F80035B8F1000F27D039686479BF
:1024D40041F30733002BA8BF03F16045C1F3073173
:1024E4004FEA5313BCBF01F00F061A4D4FEA4414D0
:1024F400A8BF05F561454FEA8303E4B203F16043E5
:10250400B4BFAC5585F8004303F5614301F01F01E6
:10251400012404FA01F1C3F880111960242303FB98
:102524000922002353770123137703B0BDE8F08F0A
:10253400C6F808B595E743F00403B6E743F006038D
:10254400B3E70820F1E71120EFE700BF58060020A9
:102554003C34000014ED00E0F8B505791C4C00682B
:1025640024236B43E618E358D3B140F307335B09E4
:102574002033184FC0F30432012101FA02F247F864
:102584002320154BC0F80833737F4BB14161D0F859
:102594000431002BFBD0242303FB054300225A778C
:1025A400242303FB0543002693F82030FF2B1FBF91
:1025B40003F5E0734FF0A042022142F82310C0F863
:1025C4000065FFF757F8242303FB05442677F8BD7D
:1025D4005806002000E100E0520108002DE9F34113
:1025E4000779474E24237B431446F2180D46517F46
:1025F4008646002940F08180F35823B114F0140F6B
:1026040004BF0123537795E80F004FF0240C0CFB13
:10261400076C0CF10C0888E80F009CF81F20FF2AB7
:1026240008D09CF81E10012393404FF0A042C1B182
:10263400C2F80835296821B101F06043B3F1005FA5
:1026440006D1AA6882B102F06043B3F1005F0BD0F7
:10265400242303FB076600237377102002B0BDE830
:10266400F081C2F80C35E5E7DEF800306868C3F89D
:102674004415C3F84805E968C3F834250022C3F8B3
:102684003815C3F81821D3F818210192019A14F0CF
:10269400010218BF0122C3F8502514F0020218BF2A
:1026A4000122C3F8402522075CBF01221A612422BB
:1026B4007A43B258B2B9D3F81821002AFBD02423A4
:1026C40003FB0766F27FFF2A07D0B07F0123934004
:1026D4004FF0A04218B1C2F80C350020BEE7C2F892
:1026E4000835BBE714F004004FF0400202D0C3F8F1
:1026F4000823F2E7C3F80423B0E71120AEE700BFD4
:10270400580600207FB503788DF80430436802939F
:1027140083688DF80C30C36804930369064A8DF806
:102724001430064B01A853F8213052F82110984771
:1027340007B05DF804FB00BFA0060020AC06002033
:10274400F0B50546174615F804CB124A42F82C702A
:10275400114A42F82C30114B0C460FCB85B06E4613
:1027640086E80F002368009323798DF80530637998
:102774008DF80630A3680293002FA389084AADF8A8
:102784000C3008BF3A46634631462846FFF7FAFD47
:1027940005B0F0BDAC060020A006002044340000C3
:1027A400092700000378012B05D0022B03D02BB995
:1027B4000348FEF783BE4068FEF768BA704700BF5F
:1027C400B806002030B50E4D0FCD8BB004AC0FC44D
:1027D40095E803000B4B0C4A00934FF4807384E894
:1027E4000300CDE902230193084A0723694604A89C
:1027F400FEF70CFE08B1FEF749FA0BB030BD00BF7E
:1028040054340000CC060020CC070020A927000087
:10281400F0B5164E164C85B0FFF7D4FF33689847D1
:1028240000F0D7FB142544F001044FF47A40A0478C
:10283400013DFAD103954FF400770DF10E0103A881
:1028440000F0DFFB70B1BDF80E10BDF80C00F568A8
:102854000097C1F5A071C0F1F00005231A4689B2B2
:1028640080B2A8474FF47A40A047E6E798340000C6
:10287400703400004FF0704393F8E02F062A10D113
:10288400D3F8E42F12070CD1D3F8E80F00F0F003CB
:10289400302B08D000F0E000A0F14003584258412A
:1028A400704700207047012070474FF0704393F841
:1028B400E02F062A0CD1D3F8E42F120708D1D3F85D
:1028C400E80F00F0F000A0F130035842584170477F
:1028D4000020704708B5FFF7CDFF40B14FF080539B
:1028E400884AD3F82433C3F30423C2F84035FFF7EE
:1028F400DCFF10B1844B854A5A67FFF7BBFF48B130
:102904004FF080534FF08042D3F84432C3F3423344
:10291400C2F83C35FFF7C9FF30B17D4AD2F8FC302C
:1029240023F08073C2F8FC30FFF7A4FF40B14FF0EE
:1029340080430022C3F80C21C3F81021C3F83825C2
:10294400FFF7B3FF20B14FF080430322C3F8A02563
:10295400FFF7ABFF60B16F4B0522C3F810260122CD
:10296400C3F888260022C3F818263F22C3F8142689
:102974004FF0704393F8E02F062A50D1D3F8E42F98
:1029840011074CD1D3F8E83F03F0F003502B46D1A4
:102994004FF08052604BD2F80414C3F82015D2F8DB
:1029A4000814C3F82415D2F80C14C3F82815D2F867
:1029B4001014C3F82C15D2F81414C3F83015D2F837
:1029C4001814C3F83415D2F81C14C3F84015D2F8FF
:1029D4002014C3F84415D2F82414C3F84815D2F8C7
:1029E4002814C3F84C15D2F82C14C3F85015D2F897
:1029F4003014C3F85415D2F83414C3F86015D2F85F
:102A04003814C3F86415D2F83C14C3F86815D2F826
:102A14004014C3F86C15D2F84424C3F87025FFF7AA
:102A240029FF48B14FF080534FF08042D3F8583219
:102A340003F04F03C2F8E43EFFF71CFF48B14FF028
:102A44008043D3F80024D20744BF6FF00102C3F8D7
:102A540000244FF08053D3F83021062A0AD1D3F84A
:102A64003431062B01BF2D4AD2F83C3743F480633E
:102A7400C2F83C37264AD2F8883043F47003C2F8CF
:102A84008830BFF34F8FBFF36F8F4FF01023D3F80D
:102A94000022002A03DBD3F80432002B2EDA204B69
:102AA4000122C3F80425D3F80024002AFBD04FF0F8
:102AB40010221521C2F80012D3F80024002AFBD0FA
:102AC4004FF010231522C3F80422154BD3F8002429
:102AD400002AFBD00022C3F80425D3F80024002ADE
:102AE400FBD0BFF34F8F0A490E4BCA6802F4E06271
:102AF4001343CB60BFF34F8F00BFFDE70A4B0B4A74
:102B04001A6008BD0030014000C007400DF0ADBAA6
:102B140000ED00E00050004000C000400010004004
:102B240000E001400400FA05300000200090D003CA
:102B3400704700000148FFF70FBD00BFBC34000020
:102B44001FB50022CDE9000107486946CDE90222FC
:102B5400FFF744FD20B105B05DF804EBFEF796B82D
:102B640005B05DF804FB00BFBC34000007B54FF0AE
:102B7400A0434FF480328DF807000121C3F80825E3
:102B84000DF10700FFF7DCFF03B05DF804FB07B5A8
:102B94004FF0A0434FF480328DF807000121C3F8B1
:102BA4000C250DF10700FFF7CBFF03B05DF804FB24
:102BB400F8B507462A200D4616461C46FFF7E7FFE0
:102BC400380AFFF7D3FFF8B2FFF7D0FF300AFFF758
:102BD400CDFFF0B2FFF7CAFF2B20FFF7D8FF280A7A
:102BE400FFF7C4FFE8B2FFF7C1FF200AFFF7BEFFFB
:102BF400E0B2FFF7BBFFBDE8F8402C20FFF7C7BFEA
:102C040010B504463620FFF7C2FF032C0ED8DFE8C8
:102C140004F00207090B4820BDE81040FFF7A6BFE7
:102C24002820F9E78820F7E7E820F5E710BD002819
:102C340014BF21202020FFF7AABF37B50B46144646
:102C44000246FFF7B5FF230A8DF805404FF0A04474
:102C54004FF480358DF804300221C4F8085501A8DA
:102C6400FFF76EFFC4F80C5503B030BD73B51546BD
:102C74001C46013A013B069E0B4402449BB292B2AD
:102C8400FFF796FF6C43330A8DF80430E51D4FF0CF
:102C9400A04304F007044FF48032013C8DF8056032
:102CA400ED10C3F80825062C05D8DFE804F0201C35
:102CB4001814100C0800022101A8FFF741FF02219B
:102CC40001A8FFF73DFF022101A8FFF739FF022108
:102CD40001A8FFF735FF022101A8FFF731FF022108
:102CE40001A8FFF72DFF022101A8FFF729FF022108
:102CF40001A8FFF725FF013DDDD14FF0A0434FF4BC
:102D04008032C3F80C2502B070BD000038B5054D03
:102D1400782445F001054FF47A40A847013CFAD1E4
:102D240038BD00BF9034000007B5002100914FF476
:102D3400A073F0220846FFF799FF03B05DF804FB87
:102D44004FF0A04330B50325C3F84057864B0FCB53
:102D540085B06C4684E80F00844B00934FF0805399
:102D640002930023214682481A46FFF7E9FC0446F1
:102D7400002840F0F5800120FFF709FFFFF7C6FFA8
:102D84002820FFF704FFFFF7C1FFCF20FFF7FFFE66
:102D94002046FFF7EBFEC120FFF7E8FE3020FFF7E7
:102DA400E5FEE820FFF7F3FE8520FFF7DFFE20466F
:102DB400FFF7DCFE7820FFF7D9FECB20FFF7E7FE14
:102DC4003920FFF7D3FE2C20FFF7D0FE2046FFF773
:102DD400CDFE3420FFF7CAFE0220FFF7C7FEF7201E
:102DE400FFF7D5FE2020FFF7C1FEEA20FFF7CFFE54
:102DF4002046FFF7BBFE2046FFF7B8FEC020FFF7D2
:102E0400C6FE2320FFF7B2FEC120FFF7C0FE10204C
:102E1400FFF7ACFEC520FFF7BAFE3E20FFF7A6FE83
:102E24002820FFF7A3FEC720FFF7B1FE8620FFF797
:102E34009DFE3620FFF7ABFE4820FFF797FE3A20B1
:102E4400FFF7A5FE5520FFF791FEB120FFF79FFE87
:102E54002046FFF78BFE1820FFF788FEB620FFF709
:102E640096FE0820FFF782FE8220FFF77FFE2720D0
:102E7400FFF77CFEF220FFF78AFE2046FFF776FE7E
:102E84002620FFF784FE0120FFF770FEE020FFF705
:102E94007EFE0F20FFF76AFE3120FFF767FE2B202E
:102EA400FFF764FE0C20FFF761FE0E20FFF75EFEC5
:102EB4000820FFF75BFE4E20FFF758FEF120FFF7D6
:102EC40055FE3720FFF752FE0720FFF74FFE102074
:102ED400FFF74CFE2846FFF749FE0E20FFF746FE9B
:102EE4000920FFF743FE2046FFF740FEE120FFF7ED
:102EF4004EFE2046FFF73AFE0E20FFF737FE142061
:102F0400FFF734FE2846FFF731FE1120FFF72EFEAF
:102F14000720FFF72BFE3120FFF728FEC120FFF723
:102F240025FE4820FFF722FE0820FFF71FFE0F2092
:102F3400FFF71CFE0C20FFF719FE3120FFF716FEE9
:102F44003620FFF713FE0F20FFF710FE1120FFF7C6
:102F54001EFEFFF7DBFE2920FFF719FEFFF7E4FE54
:102F6400204605B030BD00BF783400000C0E0D0FB4
:102F7400B834000010B508224FF0A0434FF080741D
:102F84004FF4800110F0800F14BFC3F80845C3F854
:102F94000C454000013AC3F80C15C0B2C3F808153B
:102FA400F0D110BD30B5072300204FF0A0424FF4FC
:102FB40080010124C2F80C15D2F81055C2F8081586
:102FC400AD0142BF04FA03F52843C0B2013BF1D27C
:102FD40030BD4FF0A04303220021C3F86027C3F89B
:102FE4005827C3F86417C3F85C27C3F868177047F9
:102FF4004FF0A043D3F810056FEA906000F0010091
:1030040070472DE9F84F4FF0A0434FF000084FF4FC
:10301400000207460E46C3F80C25444645465FFAAF
:1030240088F2FFF7E5FFE0B19020FFF7A3FFFFF779
:10303400B9FF8246FFF7B6FF8146D020FFF79AFF1B
:10304400FFF7B0FF8346FFF7ADFF08F1010840EA40
:103054000B2049EA0A29B8F10A0F05444C44DED191
:1030640042464FF0A0434FF400010A2AC3F8081562
:1030740032D148F2CF439D4228D9B5FBF2F543F64D
:10308400A402954228BF15469C4222D90A23B4FBC8
:10309400F3F443F6A4039C4228BF1C46F0234FF4E8
:1030A400A0725D435443A5F54725A4F5841442F664
:1030B4005C33A5F56075A4F5D054B5FBF3F5B4FB0A
:1030C400F3F43D8001203480BDE8F88F40F6485584
:1030D400DAE740F64854E1E70020F5E77F2805D811
:1030E400034A044B105C5B5C184070470020704737
:1030F400D434000054350000A0F16103192B98BFAB
:1031040020387047A0F14103192B98BF2030704735
:103114007F299ABF017001206FF02E00704700BF15
:103124005AB10A787F2A0AD800B102600021501AE5
:10313400C3E9001118BF01207047104670476FF0B3
:103144002E007047A0F16103192B98BF20387047F7
:10315400A0F14103192B98BF203070477F2805D870
:10316400034A044B105C5B5C1840704700207047B6
:10317400D434000054350000024B5B689B6809217D
:103184001B6818473C000020844640EA010313F002
:10319400030F18D18446202A0BD32DE9F007B1E898
:1031A400F807A0E8F807A2F12002202AF7D2BDE828
:1031B400F007042A07D351F8043B40F8043BA2F17A
:1031C4000402042AF7D2002A05D011F8013B00F8C2
:1031D400013B013AF9D16046704700F1010110F05A
:1031E400030F11D010F8012B002A23D010F0030F85
:1031F4000AD010F8012B002A1CD010F0030F03D0C2
:1032040010F8012B002A15D02DE970004FF001327F
:103214004FF0803350F8044BA4EB020525EA040573
:103224001D4000D1F6E7A0F1040070BC10F8012B9A
:0A323400002AFBD1A0EB0100704757
:1032400018340000000000001C34000000000000E2
:1032500020340000000000003734000000000000AF
:1032600026340000000000002C34000000000000A4
:103270003134000000000000FA32000000000303B7
:08328000ED3300000000000026
:10328800CC32000000000000D832000014000020FA
:10329800940000205C010020640100209C000020B4
:0432A800180000000A
:1032AC00FFFFFFFFFFFFFFFFFFFFFFFFFFFFFFFF22
:1032BC0000000000000000000000D6010601000024
:1032CC00F504000059050000A50400007561727436
:1032DC005F6C6F675F6261636B656E640042616314
:1032EC006B656E647320666C7573686564006170E1
:1032FC0070001B5B313B33316D0025734C6F677372
:10330C002064726F70706564202825642925730D04
:10331C000A001B5B306D002573003C25733E202595
:10332C00733A2000202530327800202020007C00C9
:10333C002563001B5B313B33306D001B5B313B3332
:10334C00326D001B5B313B33336D001B5B313B3308
:10335C00346D001B5B313B33356D001B5B313B33F4
:10336C00366D001B5B313B33376D007761726E69D4
:10337C006E6700696E666F006465627567000000B9
:10338C001E3300003F330000FE32000047330000C4
:10339C004F330000573300005F33000067330000E9
:1033AC006F33000000000000CA33000077330000C8
:1033BC007F33000084330000466174616C206572B9
:1033CC00726F720053797374656D207265736574D6
:1033DC000030313233343536373839414243444585
:1033EC00467077725F6D676D74000000FFFFFFFF22
:1033FC00FFFFFFFFFFFFFFFFFFFFFFFF00000000CD
:10340C00000000000000D6010601000050504900E9
:10341C005052530053414144430054494D455200CE
:10342C0055415254005541525445005350494D009A
:10343C005D23000031230000FFFFFFFF0006FF00AB
:10344C000000004000000000080000000600000022
:10345C0000000000000000000100000000E0D701A7
:10346C00000000000338FDD870470000FFFFFFFF8D
:10347C0006FF0000000000400000000000000000FB
:10348C00000000000338FDD870470000452D0000F7
:10349C00392B00003F2C0000712C0000352B000054
:1034AC00052C0000332C000034000020010000002B
:1034BC00004000400100000001000000430000003B
:1034CC00504F53495800000020202020202020205D
:1034DC002068282828282020202020202020202078
:1034EC002020202020202020481010101010101018
:1034FC001010101010101010848484848484848420
:10350C008484101010101010108181818181810130
:10351C00010101010101010101010101010101018F
:10352C00010101101010101010828282828282021E
:10353C00020202020202020202020202020202025F
:10354C0002020210101010200007032004170201C1
:10355C000857104080000000C8340000CC35000033
:10356C00E036000053756E004D6F6E0054756500AB
:10357C0057656400546875004672690053617400A5
:10358C00000000004A616E00466562004D617200E9
:10359C00417072004D6179004A756E004A756C007D
:1035AC0041756700536570004F6374004E6F760071
:1035BC004465630000000000414D00504D000000C8
:1035CC00043700000037000000370000003700000F
:1035DC000037000000370000003700000037000003
:1035EC000037000000370000FFFFFFFFFFFFFFFF69
:1035FC00FFFFFFFFFFFF00004036000070350000AA
:10360C007C36000090350000C435000024360000E4
:10361C00D436000030360000256D2F25642F257917
:10362C0000000000256120256220256520255420FE
:10363C002559000053756E646179004D6F6E64619D
:10364C00790054756573646179005765646E6573B0
:10365C0064617900546875727364617900467269AB
:10366C0064617900536174757264617900000000C3
:10367C004A616E7561727900466562727561727924
:10368C00004D6172636800417072696C004D617924
:10369C00004A756E65004A756C79004175677573E3
:1036AC00740053657074656D626572004F63746F5E
:1036BC00626572004E6F76656D626572004465637B
:1036CC00656D62657200000025483A254D3A255318
:1036DC0000000000E1300000FD3000000931000066
:1036EC0061310000493100005531000015310000F6
:0A36FC0025310000000000002E0040
:1037080000000000002000400000000000200040F1
:103718000000000000000000FF00000000000000A2
:1037280000200040000000000020004000000000D1
:103738000090D0030000F000400100006435000054
:10374800643500006435000064350000643500000D
:040000030000037581
:00000001FF
